:1000000051EF00F00D6A0C5201E00D8E0B5013E021
:10001000010A14E0030A15E0010A16E0070A17E0D6
:10002000010A18E0030A19E0010A1AE00F0A1BE0AE
:10003000010A1CE01ED03F0E0D121DD0060E0D123F
:100040001AD05B0E0D1217D04F0E0D1214D0660E83
:100050000D1211D06D0E0D120ED07D0E0D120BD0A3
:10006000070E0D1208D07F0E0D1205D0670E0D126F
:1000700002D03F0E0D120DC001F01200EA6A0B0E05
:10008000E96EEF500DE0020E016E006A002EFED701
:10009000012EFBD7970E006E002EFED7EF2EF3D762
:1000A0001200F86AD09EC180C182C184C196046AE0
:1000B000056A000E926E936E946E956E946A8B68CC
:1000C0008B9694960B6A0C6A9DDF01C00AF0936AC6
:1000D0000AC08AFF0A0E0B6ED1DF946A8B688B947C
:1000E0009494030E0B6E0C6A8DDF01C00AF0936AC4
:1000F0000AC08AFF0A0E0B6EC1DF946A8B688B926E
:100100009492020E0B6E010E0C6E7CDF01C00AF0A1
:10011000936A0AC08AFF0A0E0B6EB0DF946A8B687E
:100120008B909490010E0B6E0C6A6CDF01C00AF08C
:10013000936A0AC08AFF0A0E0B6EA0DFBFD70300C6
:020000040030CA
:0E00000000220E0E000181000FC00FE00F4025
:00000001FF
;PIC18F452
;CRC=6BC1  CREATED="05-??????.-17 05.53"
